:020000040800F2
:10000000503A002021840008110E0008130E000849
:10001000370E0008390E00083B0E000800000000F3
:100020000000000000000000000000003D0E00087D
:100030003F0E000800000000410E0008430E0008BB
:10004000378400081B010008378400083D4B000876
:100050003784000837840008378400083784000894
:100060003784000837840008378400083784000884
:100070003784000837840008378400083784000874
:100080003784000837840008378400083784000864
:100090003784000837840008378400083784000854
:1000A000378400086164000837840008378400083A
:1000B000BF480008E5480008CD480008378400081C
:1000C0003784000837840008378400083784000824
:1000D0003784000845420008378400083784000848
:1000E0002B4C00083784000837840008DFF80CD058
:1000F00008F0E2FA0048004755010008503A002095
:10010000401EFDD27047FD48016841F0E0010160EA
:10011000016841F0100101607047F9494FF48030E7
:100120000860F64C60684007002802DA05E008F035
:1001300052F960684007FCD5F9E74FF40051F148E7
:1001400008F0A7F900F083FE60684007FCD408F0CF
:1001500042F9F9E78AB00020079000250390DFF804
:10016000A883D8F8140020F00100C8F81400E7486C
:10017000406AC000002800DA012507F0DBFA07F02A
:100180002AFD00F01FFF07F0FEFCFFF7BCFF4FF455
:100190007A61072008F00EF907F0F5FFDC4E706079
:1001A0004FF4E13007F0C3FB0027377005F07DFF07
:1001B000D8480078AB2804D100250321D6A008F048
:1001C000E6F8D648D649BDB1552202700F70D54821
:1001D0000770D548077040F20F3007F019FD00F0A6
:1001E00051FF07F055FC00F0EDFED04E3068800462
:1001F00077D44FF4003510E007700F70CC480770CB
:10020000CC48077007F0FEFBE1E708F0DFF8306844
:10021000800402D50120079003E028466D1E0528C2
:10022000F3D8079801280AD00024E01DC2B20121AA
:10023000084604F0ADFD641CE4B2062CF5D34FF083
:10024000206541F2883ADFF8F0B220E008F0BEF80D
:10025000D8F80800C0F3C34001280BD0042809D007
:10026000052807D0B5FBFAF00AFB105010B9DBF8EF
:10027000000080473068800409D54FF48010FFF7F4
:100280003FFF3068800402D50220079006E0284630
:100290006D1E052802D907980128D7D1306880043F
:1002A00067D50798022864D14FF440151AE008F08A
:1002B0008DF8D8F80800C0F3C34001280BD00428FB
:1002C00009D0052807D0B5FBFAF00AFB105010B989
:1002D000DBF8000080473068800403D401200790D9
:1002E00004E046E028466D1E0528E0D8306880040A
:1002F0003FD5079802283CD107F0A4F98548553826
:1003000007F0CAF907F07CF98C480760002007F075
:10031000F3F8FF2804D0002007F04BF907F070F93C
:100320000024E01DC2B20121002004F031FD641C54
:10033000E4B2062CF5D3824D2F804FF49676D8F890
:100340000800C0F3C340012806D0042804D00528C3
:1003500002D0DBF8000080472888B042EFD30120AC
:1003600000F079FD7748AB2180F85510002000F0AF
:1003700072FD07F098FC012000F06DFD71492231FB
:1003800008780290C87900F0F0000009C0F1100070
:10039000801C0690087A2239401CC0B2102800D96F
:1003A0001020072800D2072000EB4000C0B20590C3
:1003B00011F8200F04904E7800F004FE604807808A
:1003C00000F0D6FD08F002F800F0FCFD5E48007871
:1003D000C5B24D48807900F0FF0820200190002E22
:1003E00071D05A4900200870594E0120307007F032
:1003F0006BFC0090564E307858B107F065FC0099C0
:10040000401A3C2801D90020307044F62060FFF7E4
:1004100077FE07F0DBFF4F48007800286DD007F02B
:10042000D5FF4FF40051374808F033F800F0CAFD0B
:1004300044F6206407F0CAFF2046FFF761FEF9E7A3
:100440002827032400F0BEFD35E06006040E802C52
:1004500000D18124022C00D1032407F0B7FF00262D
:100460004CF2503A48F2E8094FF47A5B204604F027
:1004700072FE5046FFF744FE00F0A4FD4846FFF729
:100480003FFE204604F067FE5046FFF739FE00F0BD
:1004900099FD4846FFF734FE5846FFF731FE00F05D
:1004A00091FD4846FFF72CFE761CF6B2122EDDD3E6
:1004B0000FB17F1EFFB2002F92D0C6E72827C024BD
:1004C00000F080FD67E019E16408012C02D0402CA7
:1004D00002D002E0812400E0C02407F077FF00266C
:1004E0004CF2503A48F2E8094FF47A5B204604F0A7
:1004F00032FE5046FFF704FE2EE0A5E100700040FA
:100500001404014014080020780500200010024067
:100510000000002055FC00082B2B2B00200500209C
:1005200025050020080000200900002008080140DF
:100530001F0500201B05002030000020380000208F
:10054000200000203C280020220000201B0000206A
:100550001C0000201D00002000F034FD4846FFF77D
:10056000CFFD204604F0F7FD5046FFF7C9FD00F02F
:1005700029FD4846FFF7C4FD5846FFF7C1FD00F0CE
:1005800021FD4846FFF7BCFD761CF6B2122EADD316
:100590000FB17F1EFFB2002F8ED095E7052600F029
:1005A00011FD53E0002400214FF0FF0CFB4F12E03F
:1005B000002004EBC10A0AF1010909E00AFB05F376
:1005C0003A1803F802C009FB05F303F802C0401C07
:1005D000A842F3D3491CB1EBD80FE9D307F0F6FEDC
:1005E000002748F2E80A4FF47A5B49F6404904F0E4
:1005F0008AFD4846FFF784FD00F0E4FC5046FFF713
:100600007FFD04F080FD4846FFF77AFD00F0DAFC3C
:100610005046FFF775FD5846FFF772FD00F0D2FC1B
:100620005046FFF76DFD7F1CFFB2192FDFD3DC486A
:10063000008808FB00F1D94807F02BFF082C08D0F0
:10064000641C082CAFD30EB1761EF6B2002E55D026
:10065000A8E70024F5E700F0B5FC052608240021F2
:100660004FF0FF0CCD4F12E0002004EBC10AAAF1BD
:10067000010909E00AFB05F33A1803F802C009FB77
:1006800005F303F802C0401CA842F3D3491CB1EBA8
:10069000D80FE9D307F09AFE002748F2E80A4FF492
:1006A0007A5B49F6404904F02EFD4846FFF728FDE5
:1006B00000F088FC5046FFF723FD04F024FD484677
:1006C000FFF71EFD00F07EFC5046FFF719FD58466F
:1006D000FFF716FD00F076FC5046FFF711FD7F1C7A
:1006E000FFB2192FDFD300F070FC44B1641E002C60
:1006F000B5D10EB1761EF6B2002EAFD18DE0082432
:10070000F5E76027032400F05DFC3CE0002630E0C4
:10071000A348A24A018806FB0120224607F0B2FE48
:10072000600040EAD410C4B207F050FE04F0EBFCC5
:1007300042F210794846FFF7E3FC00F043FC40F634
:10074000E44A5046FFF7DCFC04F0DDFC4846FFF7C6
:10075000D7FC00F037FC5046FFF7D2FC4FF47A701C
:10076000FFF7CEFC00F02EFC5046FFF7C9FC761CCC
:10077000F6B201988642CBD3600040EAD410C4B2EE
:100780000FB17F1EFFB2EFB3C0E76027C02400F0B7
:1007900019FC40E0002631E08148804A018806FBD0
:1007A0000120224607F06EFE600804F0010140EAD5
:1007B000C11407F00BFE04F0A6FC42F21079484683
:1007C000FFF79EFC00F0FEFB40F6E44A5046FFF7C0
:1007D00097FC04F098FC4846FFF792FC00F0F2FB0F
:1007E0005046FFF78DFC4FF47A70FFF789FC00F05C
:1007F000E9FB5046FFF784FC761CF6B2019886426E
:10080000CAD300E009E0600804F0010140EAC11425
:100810000FB17F1EFFB2002FBCD107F00FFE0721E2
:1008200090FBF1F201FB1200C0B20728F5D2DFE81D
:1008300000F00A09080706050400A6E761E70AE7D1
:10084000ACE63BE6FCE5E8E7079808B9012007902D
:1008500000F03AFE07F0BAFD09F1010909F0FF09BD
:1008600014B3002004F077FC641CE0B20699B0FBDE
:10087000F1F201FB1204059830280AD2059881454F
:1008800007D14FF00009FF2004F065FC2820FFF796
:1008900037FC03F0BDF94348007BC0070CD041484A
:1008A0000169002979D102E004F02DFCDCE78168C0
:1008B00021F000518160CDE73B4FB87800286BD024
:1008C0004FF0000B41E0364E3448318807F0E1FD2F
:1008D000DFF8C8A031880AEB010007F0DAFD3188A3
:1008E00001EB410000EBC1000AEB400007F0D1FD35
:1008F0003188C1EBC10000EB0110504407F0C9FD85
:1009000003F063FB01E00120787034B3002004F0B1
:1009100022FC641CE0B20699B0FBF1F201FB120468
:1009200009F1010909F0FF0905985A280AD205982A
:10093000814507D14FF00009FF2004F00CFC28206E
:10094000FFF7DEFB787801280AD087F802B007F0BD
:100950003DFD04980028D6D1B5E704F0D4FBD8E7D4
:1009600087F801B00298002816D1039890B10020B2
:100970000390042607F062FD072190FBF1F201FBD2
:100980001200C0B207285BD2DFE800F05A105BA764
:10099000FDFCFB00012003901EE222E2140800206F
:1009A0002200002078050020000000200EB1761EF5
:1009B000F6B24FF0280A032700F004FB3DE078066A
:1009C000070E802F00D18127022F00D1032707F0C7
:1009D000FDFC4FF0000B384604F0BDFB4CF25030EC
:1009E000FFF78EFB00F0EEFA48F2E800FFF788FB15
:1009F000384604F0B0FB4CF25030FFF781FB00F0BA
:100A0000E1FA48F2E800FFF77BFB4FF47A50FFF77A
:100A100077FB00F0D7FA48F2E800FFF771FB0BF123
:100A2000010B0BF0FF0BBBF1120FD4D3BAF1000F87
:100A300003D0AAF1010A0AF0FF0ABAF1000FBED1F1
:100A4000C5E10EB1761EF6B24FF0280AC02700F0BD
:100A5000B9FA3EE07F08012F02D0402F02D002E019
:100A6000812700E0C02707F0B1FC4FF0000B3846AB
:100A700004F071FB4CF25030FFF742FB00F0A2FA99
:100A800048F2E800FFF73CFB384604F064FB4CF208
:100A90005030FFF735FB00F095FA48F2E800FFF719
:100AA0002FFB4FF47A50FFF72BFB00F08BFA48F244
:100AB000E800FFF725FB0BF1010B0BF0FF0BBBF17F
:100AC000120FD4D3BAF1000F03D0AAF1010A0AF031
:100AD000FF0ABAF1000FBDD179E10EB1761EF6B270
:100AE0004FF0050A00F06EFA64E000270021FF23B2
:100AF000DFF808E317E0002007EBC10BCDF824B0C6
:100B00000BF1010B0CE0DDF824C00EEB00020CFB36
:100B100005FC0CF802300BFB05FC0CF80230401C05
:100B2000A842F0D3491CB1EBD80FE4D307F04EFC38
:100B30004FF0000B04F0E7FA49F64040FFF7E0FA07
:100B400000F040FA48F2E800FFF7DAFA04F0DBFAC6
:100B500049F64040FFF7D4FA00F034FA48F2E800D2
:100B6000FFF7CEFA4FF47A50FFF7CAFA00F02AFAEC
:100B700048F2E800FFF7C4FA0BF1010B0BF0FF0B92
:100B800002E0D4E084E01BE0BBF1190FD2D39C4813
:100B9000008808FB00F1994807F07BFC082F0DD076
:100BA0007F1C082FA2D3BAF1000F03D0AAF1010ACB
:100BB0000AF0FF0ABAF1000F97D108E10027F0E729
:100BC0000EB1761EF6B200F0FDF94FF0050A0827C7
:100BD0000021FF23DFF824E217E0002007EBC10B20
:100BE000CDF820B0ABF1010B0CE0DDF820C00EEB2E
:100BF00000020CFB05FC0CF802300BFB05FC0CF8AA
:100C00000230401CA842F0D3491CB1EBD80FE4D30A
:100C100007F0DCFB4FF0000B04F075FA49F640409A
:100C2000FFF76EFA00F0CEF948F2E800FFF768FA35
:100C300004F069FA49F64040FFF762FA00F0C2F9A1
:100C400048F2E800FFF75CFA4FF47A50FFF758FAE1
:100C500000F0B8F948F2E800FFF752FA0BF1010B87
:100C60000BF0FF0BBBF1190FD6D300F0AEF96FB14B
:100C70007F1E002FACD1BAF1000F03D0AAF1010AF8
:100C80000AF0FF0ABAF1000FA1D1A0E00827F0E7AF
:100C90000EB1761EF6B24FF0600A032700F092F90B
:100CA00041E0002431E05648544A018804FB012009
:100CB0003A4607F0E7FB780040EAD710C7B207F0E2
:100CC00085FB04F020FA42F2107B5846FFF718FA31
:100CD00000F078F940F6E440FFF712FA04F013FA56
:100CE0005846FFF70DFA00F06DF940F6E440FFF7C3
:100CF00007FA4FF47A70FFF703FA00F063F940F651
:100D0000E440FFF7FDF9641CE4B201988442CAD3C1
:100D1000780040EAD710C7B2BAF1000F03D0AAF1A9
:100D2000010A0AF0FF0ABAF1000FBAD14FE00EB182
:100D3000761EF6B24FF0600AC02700F043F943E098
:100D4000002432E02E482D4A018804FB01203A4657
:100D500007F098FB780807F0010140EAC11707F097
:100D600035FB04F0D0F942F2107B5846FFF7C8F982
:100D700000F028F940F6E440FFF7C2F904F0C3F9A7
:100D80005846FFF7BDF900F01DF940F6E440FFF7C3
:100D9000B7F94FF47A70FFF7B3F900F013F940F6A2
:100DA000E440FFF7ADF9641CE4B201988442C9D372
:100DB000780807F0010140EAC117BAF1000F03D02B
:100DC000AAF1010A0AF0FF0ABAF1000FB8D1002E09
:100DD0007FF4D0AD00F0F9F80A48806880007FF514
:100DE0006AAD094A1078401CC0B208490978B0FBC6
:100DF000F1F301FB13001070FFF7FCBA1408002098
:100E000022000020780500201B0000201A0000208E
:100E1000704730B4FF200B4C7723211F03E0238061
:100E20000A885206FCD50200A0F10100C0B2F6D13A
:100E300030BC07F0D0BAFEE7FEE7FEE77047704728
:100E40007047704704380140401EFDD27047FF498B
:100E500010200860704770B5FD4DFE49496849078C
:100E6000002909DBFC4E40B1002115F8010B70543C
:100E7000491CC9B28029F8D370BD06F0E3FB2846AF
:100E800006F00AFC00243119C87802028878104361
:100E90000202487810430002315D0143284606F003
:100EA00018FC2D1D241DE4B2802CECD3EB48816886
:100EB00041F000518160EA490020C87470BDF0B56E
:100EC0000021E748E74DE84E448B00204A1C02FB16
:100ED0000463470805EB471C074661F35F071CF8EE
:100EE0000770A0F1080C03F80C70401C80B20828B1
:100EF000EFD391B21029E8D3D848007A012817D14E
:100F0000002100204A1C02FB0463470805EB471C34
:100F1000074661F35F071CF807C0A0F1080703F854
:100F200007C0401C80B20828EFD391B21029E8D343
:100F3000F0BD2DE9F0470024C94BDFF830C3DFF8DE
:100F400028835E8B0023651C0BE0C7180CEB07178A
:100F500005FB068902EB030A3F5D09F80A705B1C7A
:100F60009BB28B42F1D3ACB2102CEBD3BDE8F0872F
:100F700010B5002201210B20FFF7DBFF01221146F3
:100F80001046FFF7D6FF022201210A20FFF7D1FF0A
:100F9000032201210020FFF7CCFF01210422084693
:100FA000FFF7C7FF04F0AFF8B14C2046FFF74CFF46
:100FB0002046FFF749FF2046FFF746FF2046BDE8E1
:100FC000104041E7002004F0C6B8A448C188A448F6
:100FD000408B4143A44807F05CBAA14A0009118C38
:100FE00048439E49896811F4F00F12D0C1F3C34100
:100FF00003290ED007290CD008290AD001290BD0CB
:1010000002291AD0062918D004291AD0052918D087
:101010001AE000EB800017E0117B402906D0302950
:1010200004D0202906D0102904D00DE000EB800068
:10103000800009E01621484306E000EB80004000F4
:1010400002E000EBC0004000C0F30F1006F048BD06
:1010500070472DE9F04105460E461046002406F083
:101060004BFA844F07E03055002006F0E7FDB889C1
:10107000C0B2641CE4B22A00A5F10105EDB2F2D1C0
:10108000BDE8F0812DE9F05FAFF23B0A744CC4F883
:1010900028A0207802260025704F4FF4007B4FF0E7
:1010A000200802283BD0DFF8B0910128A9F12809D7
:1010B00050D0072249460A20FFF7CBFF99F80000DD
:1010C000386099F801004FF6FF7101EA002099F8A5
:1010D00002201043B88099F8030001EA002099F833
:1010E00004100843F88099F80500387299F8061042
:1010F000B86861F3514099F8071061F3924099F88C
:10110000081061F3D64099F8091061F3D850B8601F
:10111000397A0120012974D0002974D074E04E4836
:101120000A21283807F0B5F911203860A7F804B073
:10113000A7F806803D72B86840F4003020F48020A3
:1011400020F4F00000F5002020F0C07000F5000051
:10115000B860DDE74049072228390A20FFF779FF08
:1011600011203860A7F804B0A7F8068099F80500A8
:10117000022801D93D7200E0387299F80600012872
:1011800004D9B86840F40030B86003E0B96860F38F
:101190005141B96099F80700012804D9B86820F4D2
:1011A0008020B86003E0B96860F39241B96099F8B3
:1011B000080009280FD93D72B86840F4003020F4C7
:1011C000802020F4F00000F5002020F0C07000F531
:1011D0000000B86003E0B96860F3D641B96099F8DF
:1011E0000900102806D9B86820F0C07000F500008A
:1011F000B8608DE7B96860F3D851B96088E700E05E
:1012000001E0267100E02071BB884FF480611A4A2A
:101210008B4203D96670B98015705070F988202907
:1012200004D96670A7F8068015705070B968C1F3CC
:10123000C341042901D0052905D1F988102902D913
:1012400066701021F980B988202917E01008014044
:1012500000FC0008007000403C28002078050020B9
:1012600008000020168A000814080020568700088D
:10127000807F8700003001400431002004D2667076
:10128000A7F8048015705070F988082904D2667098
:101290000821F9801570507038682063B988C90832
:1012A0006183B979217306F027F9A074E574657537
:1012B000FD480078E073FD604FF40051FB4807F0F3
:1012C000E8F8A570A06A8047B86820F4F00020F420
:1012D0000030B860C4F828A0608B208400EB400187
:1012E00001EBC0014FF6FF7000EA410006F0B5FBCC
:1012F000E07BBDE8F05F70E670B504462179E08ED2
:10130000012901D9810758D420F00100E08600208E
:1013100084F8350084F8340094F848100D222068D1
:1013200002EB81014218E2480263E2490420FFF720
:1013300090FEE04D6878A978000440EA0122E87840
:10134000024329460D20FFF784FE2878A0776978AC
:10135000E177112805D0122803D00D2801D00E28DE
:1013600001D14900E177A97884F8211084F831107F
:10137000AA796B7942EA032262622B7AEE7943EA18
:101380000623A362AB7AEE7A1B042D7B43EA062385
:101390002B43E362E38E23F01003E386D2086262FC
:1013A00011B943F00401E186022806D1E08E40F035
:1013B0000100E08694F83200A07770BD2DE9F0417D
:1013C000BB4D686B286306F097F8A8730026EE7093
:1013D00075E000EB4001B84A01EB001102EB81041B
:1013E000696B01EB8000801C286306F085F8000221
:1013F0002060002006F022FCB04F2068B989084325
:1014000000022060002006F019FCB989206808431A
:1014100000022060002006F011FCB9892068084312
:1014200020602863A3490D202268FFF712FEA1481F
:10143000017821718178427841EA0221A160027924
:10144000C37842EA0322E2608279437942EA0322C6
:101450002261037AC77943EA07236361437AA36170
:10146000837A2377C07A607784F84860E08E20F032
:10147000020020F0040020F008000A2384F8333032
:1014800040F0200040F0400040F0800040F48070C8
:10149000E086D0082061884A183A9388C0EBD300D0
:1014A0002061C808A060666490888549C0F3C700C1
:1014B00008702046FFF720FFE878401CE870E878C5
:1014C000A97B884285D3DBE52DE9F0477A4E183EAB
:1014D000B06840F00070B060754C4FF0FF0984F8C0
:1014E0001190DFF8E081002088F806007072B16882
:1014F00041F48031306121F00050B0604FF4005170
:101500006A4806F0C6FF01276A4D06F05FFFE17CDE
:10151000306807EB81014218226366490420FFF717
:1015200098FD68780102A87808430102E87808432A
:10153000606305F0E1FFA07309FA00F1C943A175EA
:10154000002115225C4B09E001EB410C0CEB011C66
:1015500003EB8C0C8CF83220491CC9B28142F3D3C6
:10156000606B401C05F0C8FF6073A17B606B00EBF3
:1015700081000A30206305F0BFFF216B0844401C46
:101580002063607B00F00300012805D0607B00F041
:10159000030002280FD01FE005F057FFE0B106F06E
:1015A00015FFE07C401CC0B2A17CB0FBF1F201FB56
:1015B0001200E074A9E7F760206B05F09DFF4FF67D
:1015C000FF7101EA0020E083002006F037FB3B4872
:1015D0008089E18B0843E083607B400736D5A17B9F
:1015E000606B00EB8102921C226332490420FFF7FA
:1015F00030FD6878A978000440EA0122E8780243C7
:1016000022632C490720FFF724FD287888F804007E
:10161000687888F80500A878C00888F80700E87896
:1016200088F80800287988F80900032811D068791B
:10163000800088F80A00072088F80B00A87988F84D
:101640000C00206BC01D2063C8F80000BDE8F04707
:10165000B4E6687900EB4000800088F80A00EAE709
:1016600010B51648007BC4B2002006F0E7FA204609
:1016700010BD2DE9F05F81468B46DFF834A0DAF823
:101680002C00017CCDB2008986B2DAF8300005F07A
:1016900033FFBAF81A0009FB00F087B22C46DFF8D6
:1016A0000C802E4417E0000029FC000814080020DC
:1016B0000800002014280020900500200030014080
:1016C0001805002028320020FFF7CAFFE11908F8AA
:1016D0000100641CA4B2A642F6D8FA48007A012898
:1016E00014D19AF80C004844C0B2BAF81A10484312
:1016F00084B2584605F000FF06E0FFF7B1FF291954
:1017000008F801006D1CADB2AE42F6D8BDE8F09FFE
:10171000082815D2DFE800F00406080A0C0E1012A3
:10172000802070474020704720207047102070476D
:10173000082070470420704702207047012070473E
:10174000002070472DE9F04FDF48B0F81A80017B88
:1017500008FB01F11FFA81F9C06A017D027B038950
:101760001FFA83FA007CC5B20023D84C02EB010BB0
:1017700014E001FB08F086B22846D24A05EB0A0CB9
:10178000177A07E08219A354012F01D14A44A354C8
:10179000401C80B28445F5D8491CC9B28B45E8D8B5
:1017A000BDE8F08F2DE9FE4FC749C86A027DD6B269
:1017B0000296027B0192027CD7B202891FFA82F85C
:1017C000B1F81A900A7B09FB02F292B20092C06A49
:1017D000086305F091FEDDE9012602EB060A13E03D
:1017E00006FB09F01FFA80FB3C4607EB080507E003
:1017F000FFF736FFB54904EB0B028854641CA4B212
:10180000A542F5D8761CF6B2B245E9D8AD48007AC3
:10181000012821D1AC49C86AC26A019808FB00209E
:10182000086305F069FE029C14E0009804FB0900BF
:101830001FFA80FB3D4607EB080607E0FFF710FFA5
:10184000A24905EB0B0288546D1CADB2AE42F5D82F
:10185000641CE4B2A245E8D89B4BD86A90F83410D7
:10186000491CC9B280F83410C28E42F00202C2860E
:10187000846AA14209D1002180F8341042F00201AB
:1018800041F01001C186BDE8FE8F0199C26A08FBD4
:1018900001F8197908FB0121C162F4E72DE9F0474D
:1018A00082468946884FFA6A107DC5B2107BC6B25F
:1018B00010891FFA80F892F84400C4B2B4421ED1D5
:1018C00092F83400401CC1B282F83410D08E40F03F
:1018D0000200D086002353643D79D46A08FB06F8E1
:1018E00008FB0544D462946AA14206D1C10704D121
:1018F00082F8343040F01000D086BDE8F0870CB993
:10190000FFF720FFBAF1000F07D005EB0600A0EBB0
:101910000400A0F10100C0B202E004EB0500C0B277
:10192000F96AA0EB0502C96A08FB0211396308FBDA
:10193000061811D0B9F1000F0AD0044605E041465F
:101940002046FFF796FE641EE4B2AC42F7D815E0DD
:101950004146FFF78EFE11E0B9F1000F0BD00446AF
:10196000354405E041462046FFF783FE641CE4B29F
:10197000A542F7D802E04146FFF77BFEF86A416CCA
:10198000491C4164B9E7F0B54F4CE26A117D00266D
:101990004E4B648B05E001FB04F51F18EE55491C06
:1019A000C9B25769D5683D448D42F4D8F0BD2DE9E0
:1019B000F34F85B08B460025AA46002700200390F0
:1019C000DFF80481B8F81A000290D8F82C000189D9
:1019D0001FFA81F9017DCEB2017B0191B0F844106C
:1019E0008CB2BBF1000F1DD0017FC90702D138496D
:1019F0008979B9B1006920B9012714B90020FFF72E
:101A0000C2FFD8F82C00006900EB0901029881425E
:101A100008D1012003902CB9B8F81A00401E80B2FA
:101A2000FFF7B1FFD8F82C008168B4EBC10F20D1CB
:101A300090F83410491CCAB280F834200023436463
:101A4000C18E41F00201C186019CC56A09FB04F9FF
:101A500098F8044009FB0454C462846AA24206D187
:101A6000CA0704D180F8343041F01001C18607B0B4
:101A700096E690F83600C00702D10CB9FFF762FE77
:101A8000059838B31049C86A027C4A44A2EBD402D4
:101A9000521E02F0FF08C06A4844A0EBD400401E6A
:101AA000086304F00700C0F10700FFF731FE0446A9
:101AB000BBF1000F2DD04546C86A007C384400F0C9
:101AC000FF0A26E078050020080000201408002006
:101AD00028320020FFE7FE49C86A027C02EBD402EC
:101AE00002F0FF08C06A00EBD400086304F00700AE
:101AF000FFF70EFE0446BBF1000F0AD0C86A007C57
:101B000000EB09010398081AC5B208F1010000F0C2
:101B1000FF0AEF480299027B514389B20091019874
:101B20003044049053E00298704387B2E848006B59
:101B300005F0E2FC0246E74B07EB0800195CA14305
:101B4000224011431954BBF1000F0DD0504609E05B
:101B50000AB1FF2100E0002107EB000C03F80C1094
:101B6000401C80B2A842F3D3DB48007A012826D17A
:101B7000D748016B019809FB001005F0BDFC0099E6
:101B80007B18D44F03EB080117F801C02CEA040CB2
:101B900000EA04024CEA020C07F801C0BBF1000F96
:101BA0000DD0504609E00AB1FF2100E0002103EB0F
:101BB000000C07F80C10401C80B2A842F3D3C448B4
:101BC000C16A026B896811440163761CF6B20498FD
:101BD000B042A8D8BE48C06A416C491C416446E77F
:101BE0002DE9F0470126DFF8E892D9F82C100A7D9C
:101BF000D7B2CA68D4B20B891FFA83F8B1F844305F
:101C00009DB2AA421ED191F83400401CC2B281F8A4
:101C10003420C88E40F00200C88600234B6408FBC5
:101C200004F899F80440CD6A08FB0454CC628C6A2D
:101C3000A24206D1C20704D181F8343040F010002E
:101C4000C8865AE608B1002000E06008A84201D129
:101C5000FFF778FD26B13819401B401E80B201E025
:101C6000E81980B2D9F82C10C21BC96A08FB02110E
:101C7000C9F8301008FB0411C0B2FFF7FAFC0EB12E
:101C80000026E7E7D9F82C00416C491C416434E692
:101C90008F48C06A416C002902D1C168490841647B
:101CA00000209DE72DE9FF5F4FF00108DFF820924B
:101CB000B9F81AA0D9F82C104FF6FF728B6802EA17
:101CC000C3020C7D01940C7B03FB04F5ADB20095BF
:101CD0004D6C002801D0164600E05608B5421ED1D2
:101CE00091F83400401CC2B281F8342000254D64C4
:101CF000C88E40F00200C88699F80470CE6A7C4312
:101D000003FB0463CB628B6A9A4206D1C20704D1FB
:101D100081F8345040F01000C886BDE8FF9F08B13C
:101D2000500800E00020854201D1FFF70BFD01982B
:101D3000DFF8A0B120440390B8F1000F18D0D9F813
:101D40002C00017C82688B18416CA3EBD1035B1ED5
:101D5000DEB2C06A1044A0EBD100401EC9F83000CA
:101D600001F00700C0F10700FFF7D2FC054610E0C4
:101D7000D9F82C00027C416C02EBD102D6B2C06AC9
:101D800000EBD100C9F8300001F00700FFF7C0FCFC
:101D9000054699F80C0000FB0A6080B20290019C95
:101DA0002AE004FB0AF087B2D9F8300005F0A4FB62
:101DB000F11928401BF8012002430BF80120464886
:101DC000007A01280ED1D9F830100098084405F0A7
:101DD00093FB01460298294038441BF800200A432F
:101DE0000BF80020D9F82C00D9F83010806808448E
:101DF000C9F83000641CA4B20398A042D1D8B8F14D
:101E0000000F02D04FF0000896E7D9F82C00416C83
:101E1000491C416481E72E48C06A416C002903D106
:101E20008168C9004908416401203BE72DE9F04F72
:101E300087B00026DFF898A0DAF82C00017D059124
:101E4000017B01F0FF09017C049101898DB2BAF890
:101E50001A1002919AF80C200299514389B201910B
:101E6000416C082901D0F9B120E090F83410491CE8
:101E7000CAB280F8342000234364C18E41F00201CD
:101E8000C1869AF80460C46A05FB09F505FB06449F
:101E9000C462846AA24206D1CA0704D180F83430F1
:101EA00041F01001C186E2E5FFF74CFCA84650E086
:101EB000049830440390DAF82C00C16A3144CAF81F
:101EC0003010761CF1B2B1FBF5F205FB121605E0FD
:101ED00008000020140800207805002090F8440035
:101EE00000F00700FFF714FC0746059C09EB04000F
:101EF00006902BE0029904FB01F01FFA80FBDAF850
:101F0000300005F0F9FA0399FD4A8B44384012F885
:101F10000B10014302F80B10A2F52770007A01287C
:101F20000DD1DAF8300005FB090005F0E5FA0146AD
:101F30000198F34B584439401A5C0A431A54DAF8B2
:101F400030002844CAF83000641CE4B20698A0426D
:101F5000D0D85FEA0800A8F101081FFA88F8A7D1D5
:101F6000DAF82C00416C491C416480E52DE9F0470A
:101F7000DFF89083D8F82C0001898DB2017DCEB2B4
:101F8000017BCFB290F84410CCB2082C01D0F4B150
:101F90001FE090F83410491CCAB280F83420C18E7A
:101FA00041F00201C1860023436498F80460C46ACA
:101FB0007D4305FB0644C462846AA24206D1CA0777
:101FC00004D180F8343041F01001C18695E4FFF768
:101FD000B9FB3019C4B206EB0709A9F10109A14503
:101FE00005DAD8F82C00416C491C416485E4D8F826
:101FF0002C00A11BC06A05FB0100C8F8300005FBDE
:1020000007012046FFF735FB0834E4B2E7E72DE986
:10201000F14F90B00020099008900027079006909B
:1020200005900490B74E708BF26A117DD3680F93C0
:1020300003F0FF0A137CDCB213899BB2B2F8445060
:10204000ADB200951D19ADB2367B4643B6B2B2F8BB
:1020500036C0CDF838C05FEACC7C05D003FB0AFC63
:10206000CDF808C0019309E0D2E909C80CFB08F8D3
:10207000CDF808801FFA8CFCCDF804C04FF07F0C1F
:102080004FF080094FF0FE084FF0010BCDF80CB077
:1020900092F81CB05FEACB7B09D00127BB46CDF894
:1020A00020B0491CC9B2AAF1020A0AF0FF0ADFF8FF
:1020B00058B29BF806B0BBF1000F22D04FF0010BD5
:1020C000CDF824B0DFF840B29BF808B00BF1010B5B
:1020D0003CB94FF0FF0C2CFA0BFC6FEA0C0909F02D
:1020E000FF0904EB030E86450BD14FF0FF0808FAF9
:1020F0000BF808F0FF086FEA080B0BF0FF0BCDF8A8
:102100000CB0DDF840B0BBF1000F18D092F834B03D
:10211000DDF83CE00BF1010B0EFB0BFECDF834B00B
:10212000DDF800B0BB44DE4509D10D9882F83400DB
:102130000E9840F00200D08611B0BDE8F08FDDF8B7
:1021400038B04FF0000E5FEACB7B11D0009F5745AF
:102150001FD10E996B4841F00201D186C2F844E0CC
:102160000079D46A0F99434301FB0340D062E3E74F
:10217000009B3B44976ABB420BD17146C2F844E0D6
:102180000E9840F0100040F00200D08682F8341023
:10219000D2E75E4B1F7A0AEB01035B1E0A9398E0BD
:1021A000DDE9083A53EA0A030C9331D001FB00F34E
:1021B0009BB2DFF84CA103EB040B1AF80BB00BEA4F
:1021C000090BCDF81CB02B445344DDF80CE013F898
:1021D00001BC0BEA0E0B03F801BCCDF818B0012FBF
:1021E00016D101FB00639BB203EB040B1AF80BB092
:1021F0000BEA090BCDF814B02B445344DDF80CB0B6
:1022000013F801AC0AEA0B0A03F801ACCDF810A0F0
:1022100023461BE001FB00FA1FFA8AFA9A44DFF812
:10222000E0E00AEB000B1EF80BB00EF80AB0012F2D
:102230000AD101FB006A1FFA8AFA9A440AEB000BE2
:102240001EF80BB00EF80AB05B1C9BB2AB42E1D398
:102250000C9BE3B301FB00439BB2DFF8A4A01AF888
:1022600003B00BEA0C0BDDF81CE04BEA0E0B0AF88E
:1022700003B06B1E0B9301FB00339BB21AF803B043
:102280000BEA080BDDF818E04BEA0E0B0AF803B076
:10229000012F1CD1331901FB00339BB21AF803B094
:1022A0000BEA0C0BDDF814E04BEA0E0B0AF803B056
:1022B00001FB006B0B9B5B449BB21AF803B00BEA6B
:1022C000080BDDF810E04BEA0E0B0AF803B0491CCE
:1022D000C9B20A9B8B423FF763AFD26ADDE90001C6
:1022E000084C00FB01202063029901440A98C0B207
:1022F000FFF7BFF9E06A416C491C41641CE700002C
:102300001408002008000020283200207805002052
:102310002DE9F04F93B0834600200E900D90844637
:102320000C900B900A900990DFF87094B9F81A108D
:10233000D9F82C30188984B2187DDA681292D2B29A
:102340001D7CB3F84460B6B2019699F80C604E4318
:10235000B6B2DF8EBE46FF0705D004FB02F7059735
:10236000039204940BE0D3E9097807FB08FACDF84F
:1023700014A01FFA88F8CDF80C80BFB204974FF074
:102380007F0A80270897FE270797012706971F7F58
:10239000FF0707D04FF0010C01270D97401CC0B27A
:1023A000921ED2B2FE4FBF79E7B101270E97FC4FC4
:1023B0004FF0FF083F7A7F1C3DB928FA07FA6FEA11
:1023C0000A0909F0FF09CDF8209004EB05098945B9
:1023D00008D108FA07F808F0FF070797079FFF439F
:1023E000FFB206972F19BFB2BBF1000F13D093F8BD
:1023F0003480DDF84890DDF804B008F1010809FBED
:1024000008F9E344D94506D183F834804EF0020040
:10241000D88613B091E65FEACE794FF0000811D06C
:10242000DDF804C094451DD1DC484EF00201D98688
:10243000C3F844800079DA6A1299444301FB04200E
:10244000D862E6E7019C6444D3F828C0644509D10A
:10245000C3F844804EF0100040F00200D88683F8A4
:102460003480D6E70244521ED2B2CE4C04F5277E09
:1024700094F80890A3E0DDE90D4C54EA0C041194A3
:102480002ED002FB01F4A4B204EB050CDDF8208091
:102490001EF80CC00CEA080CCDF830C03C44744463
:1024A000DDF818C014F8014C04EA0C040B94B9F1DF
:1024B000010F15D102FB0164A4B204EB050CDDF899
:1024C00020801EF80CC00CEA080CCDF828C03C4453
:1024D0007444DDF818C014F8014C04EA0C040994A3
:1024E0002C46A2F1010C22E002FB01F81FFA88F849
:1024F000CDF808800CFB01F80EEB040B18F80BB0BC
:10250000DDF80880A044CDF840800EF808B0B9F19D
:10251000010F0AD10CFB01E804EB060B18F80BB015
:10252000DDF84080B0440EF808B0641CA4B2BC4290
:10253000DAD3119CF4B302FB0154A4B21EF8048058
:1025400008EA0A08DDF830B048EA0B080EF8048003
:102550007C1E0F9402FB0144A4B2DDF81CB01EF8EF
:10256000048008EA0B08DDF82CB048EA0B080EF8E6
:102570000480B9F1010F20D1741902FB0144A4B207
:102580001EF8048008EA0A08DDF828B048EA0B08BB
:102590000EF8048002FB01640F9A224492B2DDF827
:1025A0001C801EF8024004EA0804DDF8248044EA96
:1025B000080400E001E00EF802400CF0FF02824245
:1025C0003FF659AF019A0399DB6A891A049A734C52
:1025D000491E01FB02312163059A1144FFF749F8B6
:1025E000E06A416C491C416413E72DE9F14F94B056
:1025F00000200C9080460B900A900990DFF89CB167
:10260000BBF81A409BF80C00604385B2DBF82C0045
:10261000B0F8441089B20391018989B2028A93B259
:10262000D0F8149009F0FF020192C268139202F0F0
:10263000FF0CC68EF20704D001FB0CF20592049148
:1026400005E0D0E909275743059792B204924FF06D
:102650007F0A80220892FE27012207920692027FBB
:10266000D2070AD001220B9209F1010909F0FF02F9
:102670000192139A921E02F0FF0C5A18129292B213
:102680000292474A9279AAB302220692444A01EB87
:10269000030B4FF0010E127A9146521CA34511D143
:1026A000082A0FD2FF279740FFB26FEA070B0BF003
:1026B000FF0BCDF81CB00EFA02FE0EF0FF0BCDF8AA
:1026C00018B00CE0A3450AD1B9F1070F07D1DDF826
:1026D00048B0ABF1010B1FFA8BFBCDF808B053B932
:1026E000082A08D24FF0FF0A2AFA02FA6FEA0A0211
:1026F000D2B2089204E01BB9B9F1070F00D101234F
:10270000149A92B1DDF82C90039A914490F83420F9
:10271000521C02FB01FBB9EBCB0F06D180F8342031
:1027200046F00201C18615B007E55FEAC6794FF0B1
:10273000000211D0DDF80C90B9EBC10F34D1174B6A
:1027400046F00204C48642641B79C46A139A594352
:1027500002FB0141C162E6E7DDF82C900399D0F855
:1027600024B04944DFF83490B1EBCB0F1CD1426464
:1027700046F0100121F00201C18699F81230012BB8
:1027800002D98369012B02D890F8213013B141F0AE
:102790000201C18600F8302F0271C4E70800002052
:1027A0002832002078050020FE4A019902F527769C
:1027B00092F808900CEB01020F927AE0DDF830C03D
:1027C00058EA0C02119217D001FB04F292B202EB0C
:1027D000030CDDF820B016F80CC00CEA0B0CCDF899
:1027E00028C0B9F1010F07D12A441A44DDF820C0EE
:1027F000B25C02EA0C0209921A46DDF808C0ACF19C
:10280000010CCDF840C02EE001FB042C1FFA8CFC1B
:1028100016F80CB04FEA4B0B06EB0C0E9EF801E0DD
:102820000EF0800E4FEADE1E4BEA0E0B06F80CB0DF
:10283000B9F1010F15D102EB050C01FB04CC1FFA15
:102840008CFC16F80CB04FEA4B0B06EB0C0E9EF806
:1028500001E00EF0800E4FEADE1E4BEA0E0B06F88A
:102860000CB0521C92B2DDF840C06245CCDB119A2C
:10287000EAB101FB043292B216F802C00CEA0A0C6B
:10288000DDF828B04CEA0B0C06F802C0B9F1010FD4
:102890000DD1EA1801FB042292B216F802C00CEA2C
:1028A0000A0CDDF824B04CEA0B0C06F802C0491CF7
:1028B000C9B20F9A8A4281D8C26A0498BA4908FB01
:1028C0000022039802EBD0000863039800F0070091
:1028D000FEF71EFF8346DDF804A04CE00298401E80
:1028E0000E900AFB04001FFA80F90C9958EA0100C7
:1028F0000D9009D016F8090007990140384041EAC7
:10290000400006F8090004E016F80900400006F847
:102910000900A548006B04F0EFFD10EA0B0F05D08D
:1029200016F809000699084306F809009D48007A40
:10293000012817D10AFB04510E98084480B20D9962
:1029400039B1315C079A0A40394042EA41013154B9
:1029500002E0315C490031549348016B059808440A
:1029600004F0CAFD90480499026B114401630AF116
:10297000010A0AF0FF0A0F985045AFD88A48C06A8A
:10298000416C491C4164CEE62DE9F14F92B0002024
:102990000B908146824609900890DFF80CB2BBF894
:1029A0001A40DBF82C004369D9B20191C16811913A
:1029B00001F0FF0C01691091CDB2018989B29BF839
:1029C0000C20624396B2C78EFA0704D001FB0CF2CA
:1029D0000392029107E0D0E9092802FB08F8CDF83C
:1029E0000C8092B20292FE220792012206927F226E
:1029F0000592802204929046027FD2070CD04FF0BD
:102A0000010A4FF001094FF040085B1CDAB2019255
:102A1000119A921E02F0FF0C4A1993B2634A9279FE
:102A2000A2B301220B924FF04008604A127A9646F8
:102A3000521CA5B9082A12D24FF0FF0828FA02F852
:102A4000CDF81480DDF814806FEA080808F0FF085C
:102A5000CDF810804FF0800828FA02F804E01DB984
:102A6000BEF1070F00D10125DDF840B08B44A3452E
:102A70000DD1082A0BD24FF0FF0B0BFA02FB0BF023
:102A8000FF020792079AD243D2B2069208E0A3450A
:102A900006D1BEF1070F03D1109A4B1E1A4493B210
:102AA000414ADDF848B0D26ABBF1000F526C13D036
:102AB00090F834B002EB0A0E0BF1010BCDF83CB0EC
:102AC0000BFB01FBBEEBCB0F06D10F9980F8341046
:102AD00047F00201C1869CE45FEAC77E4FF0000B1D
:102AE00012D0DFF8C4A0B2EBC10F2ED147F0020222
:102AF000C286C0F844B09AF80440C36A119A614390
:102B000002FB0131C16284E402EB0A01426ADFF890
:102B100098E0B1EBC20F18D1C0F844B047F01001F3
:102B200021F00201C1869EF81220012A02D9826991
:102B3000012A02D890F8212012B141F00201C18689
:102B400080F830B080F834B063E4164A019902F599
:102B5000277792F808A00CEB01020D927FE0DDF8D8
:102B60002CC059EA0C020E921AD001FB04F292B268
:102B700002EB030CBC44DDF818B01CF801CC0CEAE5
:102B80000B0CCDF824C0BAF1010F09D132441A441C
:102B90003A44DDF818C012F8012C02EA0C0208923F
:102BA0005A1E05E078050020080000202832002089
:102BB00092B22AE001FB04FC1FFA8CFC944417F843
:102BC0000CB04FEA5B0B0CEB070E1EF801EC4FEA62
:102BD000CE1E4BEA0E0B07F80CB0BAF1010F12D162
:102BE00001FB046C1FFA8CFC944417F80CB04FEAFC
:102BF0005B0B0CEB070E1EF801EC4FEACE1E4BEA06
:102C00000E0B07F80CB0521E92B2AA42D2D80E9AFE
:102C10001AB301FB043292B23A44DDF81CB012F848
:102C200001CC0CEA0B0CDDF824B04CEA0B0C02F8DA
:102C300001CCBAF1010F10D1F21801FB042292B2BB
:102C40003A44DDF81CB012F801CC0CEA0B0CDDF8AC
:102C500020B04CEA0B0C02F801CC491CC9B20D9A09
:102C60008A423FF67CAFC36A029A406C09FB02338A
:102C7000FA49A2EBD002521E1A440A6300F0070080
:102C8000C0F10700FEF744FD0A90DDF804B058E0FB
:102C90000BFB04501FFA80FA0B9959EA01000C90C3
:102CA0000AD017F80A0004990140059A104041EA39
:102CB000500007F80A0004E017F80A00400807F877
:102CC0000A00E648006B04F017FC0A99084205D098
:102CD00017F80A0040EA080007F80A00E048007AFE
:102CE000012825D1A8190BFB04001FFA80FA0C98C3
:102CF00050B117F80A0004990140059A104041EAC2
:102D0000500007F80A0004E017F80A00400807F826
:102D10000A00D248016B0398084404F0EDFB0A99BD
:102D2000084205D017F80A0040EA080007F80A0030
:102D3000CA480299026B114401630BF1010B0BF0BD
:102D4000FF0B0D985845A3D8C448C06A416C491C74
:102D5000416449E42DE9F84FC04BB3F81AA0D96A91
:102D600008891FFA80F9087DC7B2087C00F0FF08C7
:102D7000C868C4B20A8D95B209FB04F292B20092FF
:102D80000A7FD20703D07F1CFFB2A41EE4B24A6CB4
:102D90001E79D1F82CC0504309FB06F600FB06C093
:102DA0001863521C4A64AA420DD100224A64CA8E9A
:102DB00042F0020242F01002CA860D79042D02D1BF
:102DC00042F00802CA8604F097FB3E4604EB060B6D
:102DD00010E0444608EB090508E0FEF741FCA14A73
:102DE00006FB0AF122448854641CA4B2A542F4D81C
:102DF000761CB6B2B345ECD89948007A01281BD1AD
:102E0000964C0098216B084404F076FB12E045468E
:102E100008EB09060AE0FEF723FC217B914A3944BE
:102E200001FB0AF12A4488546D1CADB2AE42F2D8BF
:102E30007F1CBFB2BB45EAD8BDE8F88F8748C06A9F
:102E4000817F182900D985E719296FD2DFE801F0C1
:102E50006E0D6E0F13171B1F222427292B2D3741B0
:102E60004B5356595C5E62666A00FEF79BBC0021BC
:102E70000120FEF713BD00210846FEF70FBD00211B
:102E80000120FEF794BD00210846FEF790BD012009
:102E9000FEF7A6BEFEF7FCBE0020FEF703BFFEF75E
:102EA000BABFFEF7C3BFFFF761B890F83600C0079E
:102EB00002D00020FFF7ABB80120FFF7A8B890F8C8
:102EC0003600C00702D00020FFF722BA0120FFF72A
:102ED0001FBA90F83600C00702D00020FFF785BB6C
:102EE0000120FFF782BB90F83600C00701D0002018
:102EF0004AE5012048E50020FFF789B80020FFF7E8
:102F000007BA0020FFF771BB00203DE5012108460C
:102F1000FEF7C4BC01210020FEF7C0BC0121002047
:102F2000FEF745BD01210846FEF741BD70472DE97A
:102F3000F0414A4D6A8B2B7B53439FB2B0F5806FB3
:102F40001FD840291DD800F007048023E340EE6A13
:102F5000DFF810C1B47FE40709D001FB02F40CEBE9
:102F6000D00514F8058048EA030804F80580B47F0A
:102F7000A40706D501FB02C107EBD0000A5C1A4387
:102F80000A54BDE8F0812DE9F04704460D4691460C
:102F90009A46A9EB0407AAEB0506002F64DB002E76
:102FA0002EDBB74216DB07EBD770A6EB60080DE00F
:102FB00029462046FFF7BBFFB8F1000F03DD6D1C6B
:102FC000ADB2A8EB0708641CA4B2B0444C45EFD9DD
:102FD000BDE8F08706EBD670A7EB60080DE0294648
:102FE0002046FFF7A4FFB8F1000F03DD641CA4B274
:102FF000A8EB06086D1CADB2B8445545EFD9E7E71C
:10300000C6F10008474513DB07EBD770A8EB600655
:103010000BE029462046FFF78AFF002E02DD6D1ED9
:10302000ADB2F61B641CA4B246444C45F1D9CFE7BF
:1030300008EBD870A7EB60060CE029462046FFF7A6
:1030400076FF002E03DD641CA4B2A6EB08066D1EFD
:10305000ADB23E445545F0D2BAE705E00800002085
:1030600078050020140800207F42002E2DDBB74297
:1030700015DB07EBD770A6EB60080DE0294620466C
:10308000FFF755FFB8F1000F03DD6D1CADB2A8EBE3
:103090000708641EA4B2B0444C45EFD298E706EB93
:1030A000D670A7EB60080DE029462046FFF73FFFEA
:1030B000B8F1000F03DD641EA4B2A8EB06086D1C76
:1030C000ADB2B8445545EFD982E7C6F1000847458F
:1030D00013DB07EBD770A8EB60060BE02946204610
:1030E000FFF725FF002E02DD6D1EADB2F61B641E3C
:1030F000A4B246444C45F1D26AE708EBD870A7EB7E
:1031000060060CE029462046FFF711FF002E03DD84
:10311000641EA4B2A6EB08066D1EADB23E44554532
:10312000F0D255E72DE9F84F00200090F848C66A24
:10313000308A83B230891FFA80FC307F7169C20700
:10314000F06807D0491C1FFA81F8801E80B2012167
:10315000009102E01FFA81F880B2009C08F0FF02A3
:10316000EB4908EB00074D8B1BE0D8B2002103EBC5
:103170000C0910E0DFF89CA301EB041BDFF898E3D7
:103180001AF80BB002FB05FA86440AF80EB0401C90
:10319000C0B2491CC9B28145ECD8521CD2B2641CE1
:1031A000E4B29742E1D8DD48007A012827D1009C9B
:1031B00008F0FF0221E0D8B20021DFF8548303EBCE
:1031C0000C0A98F80C9012E0DFF8548301EB041B12
:1031D00018F80BE0DFF840B302EB090808FB05F82C
:1031E000834408F80BE0401CC0B2491CC9B28245B8
:1031F000EAD8521CD2B2641CE4B29742DBD8C94868
:103200000078C34F716A01EB8000386304F074F9F1
:10321000F86A4FF6FF72018A02EAC104007DC5B266
:10322000FEF71EFA204486B2FEF71AFA00EB0508F4
:10323000FEF716FA204484B2FEF712FA431922462A
:1032400041463046FFF79FFEF86AC18E41F0020109
:1032500041F00801C186EFE52DE9F04F85B04FF44C
:1032600080642146AB4805F014F92146AC4805F0CE
:1032700010F9A74EA74CA84DF06AA4F12804A5F1B7
:103280002405C18E8A0654D521F02001C186C26A68
:10329000326321462220FDF7DCFE6078A17800042D
:1032A00040EA0120E178084328602079287160799C
:1032B0006871A079A871E079E871207A2872607A43
:1032C0006872A07AA872E07AE872607BA17B000441
:1032D00040EA0120E17B0843E860607CA17C0004B7
:1032E00040EA0120E17C08432861607DA17D000463
:1032F00040EA0120E17D08436861607E217E40EA6A
:1033000001202883E07EA17E40EA01206883207F9F
:103310002877A07F617F40EA012094F82010E27FA7
:1033200041EA0221298494F8211085F82210C0086E
:10333000E883287A4FF00102410702D002EBD00166
:1033400000E0C108A87A430702D002EBD00000E0F9
:10335000C0086A7A4A4302F0FF09E97A4143C8B2D9
:103360000290296831636F4B1A68C2F307400C283A
:1033700001D90C38C0B2C2F307220C23B2FBF3F21E
:1033800000EB80001044C0B2614E01EB800232635A
:10339000604904202839FDF75CFE5E4928394878E9
:1033A00002048878C97842EA00200843306304F0B8
:1033B000A3F8FEF755F94FEAD008FEF751F9074692
:1033C000FEF74EF94FEAD00AFEF74AF9019052484B
:1033D00024380079C0071DD001983E463844DFF8F4
:1033E00034B1049013E0444608EB0A050BE0FEF705
:1033F00037F9014604EB06101BF8002011430BF8C7
:103400000010641CE4B2A542F1D8761CF6B2049810
:10341000B042E8D840482438007980071CD53C48A1
:10342000006B001D04F068F801983D4E07EB000B9F
:1034300010E0454608EB0A0408E0FEF711F905EB39
:103440000711725C104370546D1CEDB2AC42F4D89D
:103450007F1CFFB2BB45ECD82F4C2D4D243C20687F
:1034600030490988C1F3072100EB8102F0322A6359
:10347000284904202839FDF7ECFD264928394878E9
:103480008A780004C97840EA02200843286304F0DF
:1034900033F8FEF7E5F84FEAD008FEF7E1F8074603
:1034A000FEF7DEF84FEAD00AFEF7DAF8019060790D
:1034B000C0071DD001983E463844DFF858B003904D
:1034C00013E0444608EB0A050BE0FEF7C9F8014695
:1034D00004EB06101BF8002011430BF80010641CCD
:1034E000E4B2A542F1D8761CF6B20398B042E8D80F
:1034F000094824384079800729D50548006B001D0C
:1035000003F0FAFF0198064E07EB000B1DE00000E8
:10351000080000203C280020140800207805002026
:103520003C2C00205C050020454608EB0A0408E01E
:10353000FEF796F805EB0711725C104370546D1C92
:10354000EDB2AC42F4D87F1CFFB2BB45ECD8FB4EC9
:10355000DFF8ECB3306800F53470CBF8300003F0DE
:10356000CBFFDBF82C00017ACFB2007B00F0FF0824
:10357000002512E00024DFF8CCA30AE0FEF770F883
:1035800004EB05111AF8012010430AF80100641C2D
:10359000E4B2BC42F2D36D1CEDB24545EAD3DBF890
:1035A0002C0001898089414388B2DBF8301008443F
:1035B00003F0A2FF002512E00024DFF88CA30AE04C
:1035C000FEF74EF804EB05111AF8012010430AF833
:1035D0000100641CE4B2BC42F2D36D1CEDB245455F
:1035E000EAD3307EC5B2F079C0077DD0F068CBF861
:1035F000300003F081FF0446DBF83020D149521C33
:1036000028392046FDF725FD27460221CD4A283AD4
:1036100013E0505C6E2803D0792801D072280AD1BB
:10362000084604E013185B781354401CC0B2A04253
:10363000F8D37F1EFFB2491CC9B2A142E9D30024CE
:10364000DFF808A3DAF8080020F08050CAF8080074
:1036500051784D2903D140F08050CAF80800B9488C
:103660002838807859281ED1306900EB4900CBF802
:103670003000347F0094B07E737AC1B2327A28462B
:1036800002F0B8FF3069CBF830000094B07E327A97
:10369000C1B25019737AC0B202F0ACFF0224307A82
:1036A00005EB4000C5B24FF00008DAF8080020F042
:1036B0000060CAF808004CE0A24841462838005D86
:1036C00003F0FAF8DAF808104A0110D57169029A85
:1036D00000FB0210CBF830004FF00008F079000733
:1036E00003D596F8220017E035E0307F14E0326908
:1036F00000FB0920CBF83000307F0A0108D4B8F174
:10370000000F02D04FF0000806E04FF0010803E080
:1037100021F00061CAF808100090DAF808004001B2
:10372000002801DAF37A00E0737A01DAB27A00E075
:10373000327AB07EC1B2284602F05CFFDAF80800A7
:10374000400101D5B07A00E0307A2844C5B2641C4B
:10375000E4B2BC42B0D3F079800771D5F06803F0D1
:10376000CBFEF168401C0844CBF8300003F0C4FEE7
:10377000DBF830100844401CCBF8300003F0BCFEEE
:10378000FDF76EFFC708FDF76BFF804670480068C5
:10379000C0F30740401EC1B2DBF830007943801C03
:1037A00001FB0800CBF8300096F82210C90720D0A2
:1037B00003F0A2FE96F82000C5B2DFF8889114E06D
:1037C000B07FC4B20BE0FDF74BFF014604EB0510E0
:1037D00019F80020114309F80010641CE4B2F08BC2
:1037E0003844A042EFD86D1CEDB2308C4044A84262
:1037F000E6D896F82200800722D5DBF8300003F0E7
:103800007BFE96F82000C5B2DFF83C9114E0B07F53
:10381000C4B20BE0FDF724FF014604EB051019F8D4
:103820000020114309F80010641CE4B2F08B384406
:10383000A042EFD86D1CEDB2308C4044A842E6D8CF
:10384000DBF82C00B1798177316801F5F0714162C4
:1038500005B0BDE8F08F2DE9F843394FF86AC18E05
:1038600041F0020141F00801C186468F0024002585
:10387000F1B2DFF8E080AA2906D198F800100029FB
:103880005AD1068F082433254FF00A0913E0332D4F
:1038900007D098F80000E0BBF86A068F08243325AB
:1038A00009E0B8F800000004000C3DD1F86A808CF3
:1038B00086B210245525D8F80000E040C0B2B0FB15
:1038C000F9F1F86A828F036C01FB0231396390F8D9
:1038D00023100091416C90F82800C1F30743CAB24D
:1038E000C1B2304602F0EEFED8F80000E040C0B2AF
:1038F000B0FBF9F109FB1101F86A828F036C01FB3F
:103900000231396390F823100091426CC2F30743EF
:1039100000E009E090F82800D2B2C1B2901980B25C
:1039200002F0D0FE552DB2D1D8F80000002803D106
:10393000BDE8F84303F05BB8BDE8F883F00700206A
:10394000080000203C2800203C2C002078050020A6
:10395000580500205C0500202DE9F84FDFF80094A1
:10396000D9F82C00C18E21F48071C186C06AC9F8D3
:10397000300003F0C1FD4FF6FF7A0AEA002500206F
:1039800004F05CF9F74EB4892C43002004F056F99A
:10399000B0890AEA0027002004F050F9B5893D43B8
:1039A000002004F04BF9B089002004F047F9B089F9
:1039B0000702002004F042F9B08938434FEA00289A
:1039C000002004F03BF9B78947EA0807002004F01B
:1039D00035F9B08900F0FF08600704D0012000EB42
:1039E000D400C6B201E0C4F3C706D9F82C100869A8
:1039F0000AEAC00BB9F81C20130A0A20B3FBF0FC3A
:103A000000FB1C3A0AF1010AB0EB122F02D14FF071
:103A10000B0A12E011D806FB05F000EB400202EBA6
:103A2000C0003844C9F83000CDF80080087DEBB202
:103A3000C1B2E2B2584602F045FE0BEB04001FFA99
:103A400080FB0AFB06FA0AFB0570C9F83000CDF8C6
:103A50000080D9F82C00EBB2E2B2007DC1B258462A
:103A600002F030FE0BEB04001FFA80FAC9F8307048
:103A7000CDF80080D9F82C00EBB2E2B2007DC1B2E3
:103A8000504602F01FFE0AEB04001FFA80FA99F874
:103A90001C000A2802D84FF0010108E0A0F10A0139
:103AA0000A2901D20B2102E01E281ED00C217143ED
:103AB00001FB0570C9F83000CDF80080D9F82C0062
:103AC000EBB2E2B2007DC1B2504602F0FBFD0AEB60
:103AD000040080B299F81C10CAB20A21B2FBF1F3BB
:103AE00001FB1322511C12B102E00421DFE70B217C
:103AF000714301FB0571C9F83010CDF80080D9F889
:103B00002C10EBB2E2B2097D02F0DCFDD9F82C00FA
:103B1000C18E41F0020141F00801C186BDE8F88F75
:103B20002DE9F0470025002401278D4EDFF838826B
:103B3000A14614E004EB440000EB041008EB800005
:103B400090F83600000708D507FA04F02843C5B2FC
:103B5000F06A80F84890FDF7CFFB641CE4B2B07BBC
:103B60008442E7D3B07BC0F10801FF20C8407E4902
:103B70001839854201D17D48077008D1B27C3046A2
:103B8000012A0DD8407B00F00300012808D0707B8B
:103B900000F0030001280AD1487AB27D904206D194
:103BA000886840F0005088600120BDE8F087002060
:103BB000FBE770B500216A4CE36A9D7F606AE47898
:103BC000192204446018B0FBF2F602FB1600C01C78
:103BD00083F83200491CC9B21928F3D2A842F1D0A7
:103BE00093F8320070BD5E48C06AD0E902125143BA
:103BF0000079042801D00C2307E01E2305E01846B5
:103C00000200A0F10100C0B2FAD1491EF7D27047FC
:103C10002DE9F041524C0026E670534F0125183F24
:103C2000F0E001EB4100504A00EB011002EB800094
:103C3000E0620279012A04D97B7A05FA01F10B438B
:103C40007B72072A5ED2DFE802F0CE047296ADB630
:103C5000C90090F8311009BB90F83610C9061DD57F
:103C6000826990F84810521E91420AD180F848604B
:103C7000C18E41F00801C186FFF752FF00286ED1C6
:103C80000CE0491CC9B280F848108269B1FBF2F31C
:103C900002FB131180F84810FDF72EFBE06AC18E7D
:103CA0008A073BD54A072DD521F0020121F00401F6
:103CB000C186C80712D0FFF77CFFE16A887791F8C8
:103CC0003500401CC0B281F835008A6A904205D1A7
:103CD00081F83560C88E40F01000C886E06AC38E57
:103CE000D9060FD5826990F84810A2F1010C614500
:103CF00009D180F8486043F00801C186FFF710FF42
:103D000000282CD16FE0491CC9B2B1FBF2F302FBD1
:103D1000131180F84810FDF7EFFA64E090F83010C6
:103D200041BBC17F80F83010FFF788F85BE090F866
:103D30003600800601D5FFF78FFA607CE17820FA23
:103D400001F2D2074FD005FA01F1884360740848A8
:103D5000007808B9FFF780FAFFF7E4F943E097E04D
:103D600008000020003001409005002002000020E3
:103D70005C05002015E090F83600400601D502F001
:103D800036FEE06A408FEE282DD0607CE17820FA84
:103D900001F2D20727D005FA01F188436074FFF7DA
:103DA0005AFD20E090F83010E9B9C17F80F830105A
:103DB000FEF7D0FF17E090F83600000601D503F0BB
:103DC000F0F8607CE17820FA01F2D2070BD005FA16
:103DD00001F18843607403F0E4F804E0C08EC0058C
:103DE00001D5FFF7B9FDE06A017FCA0707D090F857
:103DF000332022B90A2280F8332001F023FAE07838
:103E0000401CE070E178A07B8142FFF40AAF787A31
:103E1000A17D884206D161792046052902D94671E3
:103E2000FFF77EFEDFF8688498F8060000282FD0A0
:103E3000B868C00301D501F05EFB98F80900A0B195
:103E400098F80B10002923D198F80A1088F80B1065
:103E500001280ED0022811D0032819D1607A90B120
:103E60006672BDE8F04102F020B8BDE8F04101F013
:103E700042BBBDE8F041012001F097BDBDE8F04133
:103E8000002001F092BD6572BDE8F04101F033BB46
:103E9000BDE8F0812DE9F04F0021FF4ADFF8F4A3DF
:103EA000578B92F807E07D1E10F81120120200EBEC
:103EB000410393F801B04BEA020B002601F102091D
:103EC00009FB07A315E009FB07F20AEB060412F849
:103ED00004C04FEA4C0C02F804C0761C13F80680AC
:103EE00008F080084FEAD8184CEA080C02F804C021
:103EF000F6B2AE42E7DB5A5D52000BFA0EFB0BF452
:103F00000044E40B22435A55491CC9B21429CBD3AF
:103F1000E1490EF1010E0EF0FF00C8710A2804D924
:103F20000020C8718879401C887192E42DE9F04F17
:103F30000021D94ADFF85CA3578B92F807E07D1E79
:103F400001EB4102835C1C020244537823431B02B1
:103F500092F802B04BEA030B002601F1020909FBBB
:103F600007A315E009FB07F20AEB060412F804C0E8
:103F70004FEA4C0C02F804C0761C13F8068008F0D7
:103F800080084FEAD8184CEA080C02F804C0F6B2D0
:103F9000AE42E7DB5A5D52000BFA0EFB0BF4000455
:103FA000E40D22435A55491CC9B21429C8D3BA4951
:103FB0000EF1010E0EF0FF00C871142804D9002084
:103FC000C8718879401C887143E42DE9F047B24EEE
:103FD000F06A90F83010002979D1C17F80F8301054
:103FE00003F0A8FEAD480068020EC0F30749C0F315
:103FF0000724C5B2AA480068C0F30747C0F3072CDE
:1040000000F0FF0896F806A00A2006F5EE71BAF156
:10401000170F7AD2DFE80AF00C10151E292E37424E
:1040200047505C60656A7A838E929BA6ABB4BF00F2
:10403000BDE8F0479B482DE7BDE8F0479948503868
:1040400028E7B2FBF0F0BDE8F04700EB800001EBA1
:10405000C0001FE7B2FBF0F3BDE8F04700FB132000
:1040600000EB800001EBC00014E7BDE8F0478A4890
:1040700038305BE7B4FBF0F0BDE8F04700EB8000C0
:1040800001EBC00006E7B4FBF0F200FB1240BDE814
:10409000F04700EB800001EBC000FBE6BDE8F04715
:1040A0007D48743042E7B5FBF0F0BDE8F04700EB27
:1040B000800001EBC000EDE6B5FBF0F200FB125012
:1040C000BDE8F04700EB800001EBC000E2E66CE0E9
:1040D000BDE8F047744829E7BDE8F0476E48B030C6
:1040E00024E7BDE8F0476C48EC301FE7A9F101096F
:1040F000072099FBF0F100FB1190BDE8F0476B49F8
:10410000C0EB001001EB800010E749E0B7FBF0F0D6
:10411000BDE8F04700EB800001EBC000BAE6B7FB5A
:10412000F0F200FB1270BDE8F04700EB800001EBFD
:10413000C000AFE6BDE8F0475D48F7E6BCFBF0F035
:10414000BDE8F04700EB800001EBC000A2E6BCFB3D
:10415000F0F2BDE8F04700FB12C000EB800001EB7D
:10416000C00097E6BDE8F04751483C30DEE6B8FBBA
:10417000F0F0BDE8F04700EB800001EBC00089E6FD
:10418000B8FBF0F200FB1280BDE8F04700EB8000C6
:1041900001EBC0007EE6BDE8F04745487830C5E653
:1041A0000020B071434901200870FEE442480178C4
:1041B0004248A0390B2909D2DFE801F006080908B6
:1041C0000C0E1008120815004FF0DC7070474FF00D
:1041D000257070473A4870473A4870473A487047E8
:1041E0004FF0A56070473948704710B50120FCF7C3
:1041F00032FE0620364A02F12801135C0B54401CA3
:10420000C0B21228F9D38A79FF20FF2A02D088226F
:104210004A7100E048710871BDE810400020FCF7C9
:104220001ABE10B510280CD840F0A0040120FCF7ED
:1042300012FE274828300476BDE810400020FCF725
:104240000ABE10BD2DE9FC5F1B4C0834002621A0DE
:1042500003C8CDE90001184D183D2048018821F020
:10426000200101801E48DFF874B00B4F0078ABF1DD
:104270000C0B012873D0E84604F059F818F8061022
:1042800088426DD1761CF6B2062EF5D32AE00000E6
:1042900028320020140800200800002058050020C3
:1042A0005C05002034020020DC04002074030020A0
:1042B000300100200100002018FC0008FFFFDF068D
:1042C00060796E03402BDC0318FC4B04FFFF0306F0
:1042D00014280020AA55AA55000000000C380140FF
:1042E0002505002004F023F8FA4E4FF0010A4FF4A0
:1042F00000084FF00009772871D017DCF64CA6F1C2
:1043000028050D286CD008DCA0F10700062827D26C
:10431000DFE800F02754677226B5612879D062285B
:1043200072D0632871D06428ABD194E083286DD01B
:104330000CDC7D286BD004DC782869D07C28A0D1E7
:10434000F1E080286FD082289BD111E184286BD0C6
:1043500086286AD0AB2869D0FE2892D169E198E21C
:104360000AE2882004F003F8002603F0E0FFA855D5
:10437000761CF6B2082EF8D3D6480021283803F070
:10438000CEFD0020D44B183300EB400101EB0011AF
:1043900003EB8101CA8E42F0200242F04002CA863D
:1043A000401CC0B20828EFD3A06840F00050A060C5
:1043B00087F81390882003F0DAFF78E2A06820F0F5
:1043C000004040F00050A06087F81590882003F06E
:1043D000CEFFB8F10108FCD203F0FDFF67E238E13F
:1043E00058E0FCF7EFFD882003F0C1FF87F815A027
:1043F000207DC007E1D190E103F099FFC0F1FF04F7
:10440000002C7DD047E104E011E01AE0C1E0A0E01B
:1044100060E00120FCF71FFD96F82200002870D014
:1044200086F822904AE125E1BEE0D9E0E5E00120EE
:10443000FCF711FD96F82100002872D086F8219033
:104440005FE10120FCF707FD96F82000002869D005
:1044500086F8209047E103F06AFF04460120FCF74C
:10446000FAFC86F82A400020FCF7F5FC882003F0CF
:104470007EFFB8F10108FCD203F0ADFF17E206247D
:1044800003F055FF2855641CE4B2122CF8D3FFF753
:10449000ACFE0CE2882003F06AFF0120FCF7DBFC95
:1044A000002703F044FFE8557F1CFFB2092FF8D323
:1044B000A878E97850EA012075D000203218295CEC
:1044C00082F82010401CC0B20928F7D30020FCF766
:1044D000C2FCECE103F02BFFFCF774FD002000F0C0
:1044E0003AFE03F08DF80020386303F005F8FF284A
:1044F00004D0002003F05DF803F082F8012001E011
:10450000C8E0D9E0FCF7A7FC4FF6FF70401EFDD2D3
:10451000032003F02CFFFFF749FE20F070494C46C2
:104520000DE1ECE0DDE0B87A0028A7D087F80A902A
:104530000120FCF790FCF87AB0770020FCF78BFCA8
:10454000882003F014FFB8F10108FCD203F043FF08
:10455000ADE103F0ECFE411E03298FD2F872A520D5
:1045600003F005FF5A2003F002FF87F80AA09EE13E
:104570000820386302F0C0FF0024584DA889C0B25B
:1045800003F0F5FE002003F059FB641CE4B2092C93
:10459000F4D39D2003F0EBFE112003F0E8FE012090
:1045A00003F0E5FE83E139E19D2003F0E0FE1120F8
:1045B00003F0DDFE012003F0DAFE002003F0D7FE59
:1045C000002003F0D4FE802003F0D1FE002003F091
:1045D000CEFE002003F0CBFE202003F0C8FE66E1F3
:1045E00003F0A5FEFFF71DFE882003F0C0FEB8F122
:1045F0000108FCD203F0EFFE59E103F098FE0446F7
:1046000003F095FEFE286BD02402044303F08FFED6
:104610000002386303F08BFE396B084300023863F5
:1046200003F085FE396B0843386302F065FF2B4DBC
:10463000EDE0042003F09BFE002514F8010B03F0CD
:1046400096FE6D1CEDB20A2DF7D3042003F08FFE09
:104650002DE1387D00288AD00120FCF7FCFB03F017
:1046600066FE0446A4F108000C289BD286F8404060
:104670004125E5E0387D002894D00120FCF7EBFBD4
:1046800003F055FE86F856000446601E132889D2B2
:104690005725EDE010240120FCF7DDFB86F82940CA
:1046A0000020FCF7D8FB882003F061FEB8F1010878
:1046B000FCD203F090FEFAE086F822A00020FCF77E
:1046C000CAFB882003F053FEB8F10108FCD203F0C6
:1046D00082FEECE03C2800207805002000300140FC
:1046E00085E086F820A00020FCF7B5FB882003F0C9
:1046F0003EFEB8F10108FCD203F06DFED7E086F86B
:1047000021A00020FCF7A7FB882003F030FEB8F1C1
:104710000108FCD203F05FFEC9E0A06840F0004051
:1047200040F00050A060F848016841F00F010160BE
:10473000BDE003F04BFE641E01D103F04CFEBBF85C
:1047400000008006F5D5F1480088040203F0EFFD73
:104750002043050203F0EBFD284300F1080406F8AE
:10476000784F200A7070200CB070200EF070E8486E
:10477000844202D90420787099E002203863002630
:10478000B2461BE04D4605E003F020FE6D1E01D150
:1047900003F021FEBBF800008006F5D5DB48008859
:1047A000C5B2284602F005FF386B401C386303F0A1
:1047B0000DFE14B17019C6B200E0AA46641EE1D223
:1047C0004FF6FF70401EFDD2B2450DD10020386378
:1047D000882002F0EEFE0020FCF73DFB882003F06D
:1047E000C6FDB8F10108FCD203F0F5FD5FE024023C
:1047F00003E015F8010B03F0BAFD641EF9D256E090
:1048000003F0B5FD002003F019FAA889C0B2641EB8
:10481000F6D2BD491020091D086048E0FF2086F847
:1048200028000020FCF717FBA06820F00040A060E3
:104830003DE003F07CFD70556D1CEDB2641EE4B2EA
:10484000002CF6D1AB2086F855000020FCF703FBC6
:10485000882003F08CFDAF48401EFDD203F0BBFD65
:1048600025E003F064FD70556D1CEDB2641EE4B2EA
:10487000002CF6D1AB2086F855000020FCF7EBFAAF
:10488000882003F074FDA348401EFDD203F0A3FD71
:104890000DE0BBF80000800609D59C480088C1B235
:1048A000387AC82803D29C4A1154401C3872974861
:1048B0000830018841F020010180BDE8FC9F4FF0E5
:1048C0008040018A21F001010182704793480188EC
:1048D00021F00101018091481038018801F0FE01AA
:1048E00001807047F0B58E48018821F001010180F8
:1048F0008C4F388BB0F5C87F01D2401C38838A4E6C
:10490000B568002D4FDB387C401E00F0FF0C87F8A7
:1049100010C00020834906F118048B7B13E000EBE4
:10492000400101EB001104EB810191F8332012B139
:10493000521E81F8332091F8302012B1521E81F8B6
:104940003020401CC0B29842E9D37849C87A08B1F7
:10495000401EC872BCF1000F25D17879401C7871D7
:10496000C8203874786A401C7862002112E001EB9C
:10497000410000EB011004EB800090F831209AB167
:1049800090F836C05FEA8C7C02D5521E80F8312048
:10499000491CC9B29942EAD3307BC00703D0F88BD7
:1049A00058B1401EF883F0BDC28E42F00402C286A8
:1049B00090F8212080F83120EAE70020F06045F0EF
:1049C0000050B060F0BD2DE9F041594859490968DF
:1049D000C1F30F21564A08321278FF2A5ED0D24323
:1049E000D2B24378047843EA042CC378847843EA4B
:1049F00004264379047943EA0427C379807943EA9A
:104A00000028494BA0244C4D9868614540F0005067
:104A10000FD1D10861F3DF70986000283EDA0120E1
:104A2000FCF719FA85F83840BDE8F0410020FCF7A2
:104A300012BAB1420FD1910861F3DF70986000287B
:104A40002CDA0120FCF707FA85F83840BDE8F04180
:104A50000020FCF700BAB9420FD1510861F3DF70B2
:104A6000986000281ADA0120FCF7F5F985F838403B
:104A7000BDE8F0410020FCF7EEB941450ED162F3EC
:104A8000DF709860002809DA0120FCF7E4F985F866
:104A90003840BDE8F0410020FCF7DDB9BDE8F08109
:104AA00070B523481B38007888282CD120481A3844
:104AB00020490968C1F30F2400214FF6FF750278E1
:104AC00005EA02234278801C1A43944216D10078EA
:104AD000144CC0F1FF00E07308B91020E073E07BD4
:104AE000FCF77BFA0120FCF7B6F91349E07B81F86B
:104AF0002900BDE870400020FCF7ADB9401C491CFE
:104B000089B20429DBD370BD0C0801400438014090
:104B1000FAFF0F00FFFFCF003C30002010080040DC
:104B200010040040080000207805002028320020F2
:104B300020FC00085C0500203C2800202DE9F047FF
:104B4000FC4D288840F6FA7108402880F948183052
:104B50000088F8491431098840EA01413C23B1FB3F
:104B6000F3F003FB1010F44FF44C3A682240024378
:104B70003A60F34EB26842F00072B260DFF8C4C32C
:104B8000FF248CF8114003284AD24FF46164B1FB32
:104B9000F4FC04FB1C1CBCFBF3F303F0FF0CEA4B1E
:104BA000B1FBF3F803FB1811B1FBF4F1CCB2210413
:104BB00041EA0C2101433960DFF890934FF0A008DF
:104BC000182C0BD3002A07DA0120FCF744F989F8E6
:104BD00038800020FCF73FF903F0FDFBFFF7F3FE00
:104BE000FFF75EFF398804F0030089B2084317D14C
:104BF0000120FCF730F9B06848EAD07089F8380035
:104C00000020FCF728F9B068002807DA0120FCF73B
:104C100022F989F838800020FCF71DF903F0DBFB4E
:104C200028888006FCD5BDE8F0872DE9F05F0025D7
:104C30004FF4C877C64801688904002973DA46141E
:104C400006606420FCF700F9C248DFF80C9303E02B
:104C5000D9F80010890467D40146401E0629F7D808
:104C6000BE48D9F80010890403D40146401E052926
:104C7000F7D84FF40051BA4803F00BFC4FF080080E
:104C80004FF4617002F0E9FE4FF42F7002F028FF3C
:104C9000AB48816821F400318160DFF8A8B20920B7
:104CA000ABF81A00AF48CBF82800DFF8B4A235B152
:104CB000032D1AD0012D30D0022D36D03BE0002636
:104CC0000CE0BBF81A10224606FB01A003F0DAFB49
:104CD000600040EAD410C4B2761CB6B24645F0D3A8
:104CE000600040EAD410C4B225E000260DE0BBF815
:104CF0001A10224606FB01A003F0C4FB600804F072
:104D0000010140EAC114761CB6B24645EFD36008F3
:104D100004F0010140EAC1140DE04FF40051904845
:104D200003F0B7FB07E027E030E0FF224FF400512B
:104D30008B4803F0A7FB7F1E052F01D203F04BFB2E
:104D40008948FCF781F8D9F800008004AFD44FF40B
:104D50007A70FCF779F8D9F800008004A7D4D9F864
:104D600000008004FBD54FF4C8776D1CEDB2042D14
:104D70009DD303F030FB9AE70168490406D54FF450
:104D800080410160BDE8F05F03F025BBBDE8F09F06
:104D90002DE9F04700246B4BDFF8D0C1DFF8C0816C
:104DA0005E8B0023651C0CE0C71805FB06890CEB25
:104DB000071702EB030AD1443F5D09F80D7C5B1C29
:104DC000DBB28B42F0D3ECB2102CEAD32BE730B538
:104DD000674D00212970012169700221A9701121FC
:104DE000E9700D2129710C2169710422AA710B222D
:104DF000EA7112222A7269720E21A972002809D062
:104E00000024A01CC2B2285D0121FFF7C1FF641C71
:104E10000B2CF6DB484D0A24002228780121B0FB38
:104E2000F4F0FFF7B5FF28780122B0FBF4F104FBA2
:104E30001100BDE830401146AAE7A0B00024404E62
:104E4000404D6878A04202D00446FCF7BBF8687871
:104E5000052835D0012837D002283CD0042841D07D
:104E600080224449684603F0FBFA0021DFF8F0A0F5
:104E7000B5F81A80E94600204A1C02FB08AC43083A
:104E800009EB4317034661F35F03FF5CA0F10803DE
:104E90000CF8037000F1010080B20828EFD391B242
:104EA0001029E8D303F092FAB068C0F3C340012898
:104EB000C7D00428C5D00528C3D0A86A8047C0E75A
:104EC0000120FFF784FFEDE72A4980228031684600
:104ED00003F0C6FAC9E7274980228039684603F003
:104EE000BFFAC2E780222449684603F0B9FABCE75A
:104EF00070B52A2003F03BFA742003F038FA6920D9
:104F000003F035FA6D2003F032FA652003F02FFA32
:104F10003A2003F02CFA0024094D103D285D03F0DF
:104F200026FA641CE4B20E2CF8D3BDE870400420CD
:104F300003F01DBA042800405C05002000FFFF00BC
:104F40007805002008000020805101003C28002046
:104F500014040140A08601000808014080969800D2
:104F6000140800200751000820A107006C8B0008DE
:104F70004532002096880008968900082DE9F04106
:104F800020480568204E02273763002002F0B4FA5B
:104F9000882835D19DB3681C32D0306B2844401E20
:104FA00002F0AAFA0446691E306B02F03AFBDFF801
:104FB0005C8084420DD10024306B284420440838A2
:104FC00002F09AFA08F80400641CE4B2072CF3D348
:104FD00001E0012030703846376302F08DFA9D28D9
:104FE0000AD048B1032030700020002108F80010DA
:104FF000401CC0B20728F9D3BDE8F04178E7FFE7CD
:1050000037704BE578FC0008080000206805002098
:1050100000E0401E0028FCD170471E205E4980221F
:105020000A600100A0F10100C0B2FAD15A48001D87
:10503000026070471E2059494FF480720A600100D7
:10504000A0F10100C0B2FAD15448001D02607047BF
:105050001E20524901220A600100A0F10100C0B2E5
:10506000FAD14E48001D026070471E204B490222B3
:105070000A600100A0F10100C0B2FAD14748001D4A
:105080000260704730B5444BC2074FF4004103F152
:10509000040401D0196000E02160802222601A60BF
:1050A000850701D5196000E0216022601A6045077C
:1050B00001D5196000E0216022601A60050701D562
:1050C000196000E0216022601A60C50601D51960F0
:1050D00000E0216022601A60850601D5196000E0B9
:1050E000216022601A60450601D5196000E0216048
:1050F00022601A602260000601D5196000E021607C
:1051000022601A6030BD2DE9F041092600250024F7
:10511000234FDFF8908011E0301B401EC5F11701CE
:1051200001FB060080B2385CD8F80810490300D4AF
:10513000C043C0B2FFF7A6FF641CE4B2B442EBD395
:10514000FFF778FFFFF784FF6D1CEDB2182DDED35B
:10515000BDE8F04189E72DE9F04180461248068814
:105160000025104F002409E04046B968490300D4E7
:10517000C043C0B2FFF786FF641CE4B2B442F3D36D
:10518000FFF758FFFFF764FF6D1CEDB2182DE9D350
:10519000BDE8F04169E70000100C01401008014033
:1051A00014080020780500202200002010B50022FD
:1051B0000024C0F34100022802D0012820D03EE0A4
:1051C00008293CD2DFE801F004070A0D1013161974
:1051D0000F22F02433E08722E12430E0C322C324ED
:1051E0002DE0E12287242AE0F0220F2427E0782214
:1051F0001E2424E03C223C2421E01E2278241EE0D0
:1052000008291CD2DFE801F004070A0D1013161953
:105210000F22F02413E01E22782410E03C223C24CC
:105220000DE078221E240AE0F0220F2407E0E1229C
:10523000872404E0C322C32401E08722E12444EA56
:10524000022010BD2DE9F34F88B04FF00008FE4951
:105250000C88017DCDB2017BCFB2017CCEB200893A
:105260001FFA80F9099810F0060F29D0DFF8DCA3A7
:1052700009989AF80010FFF799FF010AC2B29AF84C
:105280000100401CC0B28AF80100F14B1B78984223
:1052900009D300208AF801009AF80000401C00F0B1
:1052A00007008AF800004FF0800C7F2001904FF03B
:1052B000010AFE200090E7488079E0B11EB10CE0C1
:1052C0000F21F022EFE7E3484FF0800C007A2CFA30
:1052D00000FC6FEA0C00C0B2019006EB0900A0428E
:1052E00009D1DC48037A0120984000F0FF0A6FEAF8
:1052F0000A00C0B20090D848007A0790012850D127
:10530000099880064DD528463B18029346E0D34BBA
:105310001B7800EB030ECDF818E0D14B0EFB04FE1A
:1053200003EB060BCDF814E0CDF810E01EF80B30BF
:10533000DDF804E003EA0E03DDF810E00EF80B30B0
:105340004FF0800E2EFA08FECDF80CE01EEA020F98
:1053500005D0DDF814E043EA0C030EF80B30C04B27
:10536000DDF818B0DDF800E00BFB043306EB090BA9
:105370005B4413F801BC0BEA0E0B03F801BCDDF82B
:105380000CE01EEA010F03D04BEA0A0B03F801BC44
:10539000401CC0B208F1010808F00708029B8342D4
:1053A000B5D80998C306AE48A0F1010052D5B4465D
:1053B000DFF8ACA206EB090311E005FB04FB0AEBE6
:1053C0000C080BF8081005EB070BABF1010B0BFBFE
:1053D00004FB0BF808200CF1010C1FFA8CFC634550
:1053E000EBD8DFF870C29CF80880B8F1000F31D01C
:1053F000BEB94FF0FF0C2CFA08FC05FB04FB1AF8B1
:105400000BE00EEA0C0E0AF80BE005EB070BABF114
:10541000010B0BFB04FB1AF80BE00EEA0C0E0AF86A
:105420000BE0A34216D1FF2303FA08F305F1010CA8
:105430000CFB04FC1CF8008008EA03080CF8008050
:1054400005EB070C0CFB04FC1CF8008008EA0308C1
:105450000CF80080079B012B4AD1099B9B0647D57E
:105460003346DFF8F8C1DFF8F8A1B1449CF800C07A
:1054700012E005EB0C0B0BFB04FB0AEB03080BF82B
:1054800008100CEB050BBB44ABF1010B0BFB04FB51
:105490000BF808205B1C9BB29945EAD86D490A7A43
:1054A000002A25D09EB9FF21D14005EB0C031E46F2
:1054B00063431AF8038008EA01080AF80380F31925
:1054C0005B1E63431AF803600E400AF80360A145AF
:1054D0000ED1FF21914005EB0C021346521C624392
:1054E000155C0D401554DA196243135C0B401354DC
:1054F0000AB0BDE8F08F2DE9FE4F584800785249B8
:105500000C88604385B2DFF84CC1FF219CF808008D
:1055100021FA00F7814001F0FF084F498A6822F420
:1055200080328A608979091ACEB2DCF800200192B3
:105530009CF80710331AB3EBC10F03DBCB064FEA1D
:10554000136901E003F0FF0901FB00F3580000EBD1
:105550000110DFF800A11044009002EB430001F0BD
:10556000CBFF9AF808A0DFF8F8B011E0FCF778F864
:105570003C4901F80A000AFB04F189B21BF801203A
:105580003A4002430BF801200AF1010A1FFA8AFA95
:105590003048007A48445045E8D82F48007A01281E
:1055A00026D1DFF8B0A09AF807009AF8081048430F
:1055B000009901EB400001F09FFF9AF808A012E06B
:1055C000FCF74EF82749463101F80A000AFB04515E
:1055D00089B21BF801203A4002430BF801200AF17E
:1055E000010A1FFA8AFA1B48007A48445045E7D856
:1055F000DFF860A0019A9AF807009AF80810414372
:1056000002EB410101EBC00001F076FF9AF808A01F
:1056100013E0FCF725F80F498C3901F80A000AF16C
:10562000010A0AFB04F1491E89B20D4B5A5C02EAD9
:10563000080202435A541FFA8AFA0648007A48447C
:105640005045E6D804480FE022000020190500204C
:1056500016000020283200207805002014000020C9
:105660001408002010310020007A01282CD1DFF826
:105670001CA4009A9AF807009AF80810414302EB1C
:10568000410101EBC00001F037FF9AF808A0DFF8F4
:1056900000B414E0FBF7E4FFFC49463901F80A00C6
:1056A000691E0AF1010A0AFB041189B21BF80120E4
:1056B00002EA080202430BF801201FFA8AFAF348B3
:1056C000007A48445045E5D8F048017A90F807A0A0
:1056D00001EBCA00029065E04FEACA60020E5DE08D
:1056E000501840285CD200FB04F39BB2DFF8A0C343
:1056F0001CF803B00BEA070BDFF898E31EF80190E3
:105700004BEA090B0CF803B00EF8009000F1010908
:1057100009FB04F35B1E9BB21CF803E00EEA080EC3
:10572000DFF868B3ABF18C0B1BF801B04EEA0B0E3F
:105730000CF803E0D54B8C3B03F800B0D64B1B7A3A
:10574000012B28D100FB04539BB21CF803B00BEAD9
:10575000070BDFF840E30EF1460E1EF801E04BEABE
:105760000E0B0CF803B0CB4B463303F800E06B1E76
:1057700009FB04339BB21CF803B00BEA080BDFF8FB
:105780000CE3AEF1460E1EF801904BEA090B0CF843
:1057900003B00EF8009002EBCA00C2B2B2429FD32F
:1057A000491C89B20298DFF8E4B2884294D8019883
:1057B00001F0A2FE4FF00009B54FD84615E04FF0BA
:1057C000000A0AE0FBF74CFF09FB04F107EB0A02B1
:1057D00088540AF1010A1FFA8AFA98F8070050451E
:1057E000F0D809F1010909F0FF0998F808004845C7
:1057F000E5D8A948007A01281FD1009801F07CFE65
:105800004FF0000A15E04FF000090AE0FBF728FF0F
:105810000AFB047105EB0902885409F101091FFA1A
:1058200089F998F807004845F0D80AF1010A0AF00A
:10583000FF0A98F808005045E5D898F8071098F83E
:105840000820019801FB020001F056FE06FB04F05F
:105850001FFA80FA4FF0000915E04FF0000B0AE044
:10586000FBF7FEFE09FB04710AEB0B0288540BF1F7
:10587000010B1FFA8BFB98F807005845F0D809F187
:10588000010909F0FF0998F808004845E5D8824861
:10589000007A012829D198F8071098F80820009874
:1058A00001FB020001F028FE06FB04501FFA80FBFA
:1058B0004FF0000A15E04FF000090AE0FBF7D0FEB8
:1058C0000AFB04710BEB0902885409F101091FFA64
:1058D00089F998F807004845F0D80AF1010A0AF05A
:1058E000FF0A98F808005045E5D898F80700B4FB7F
:1058F000F0F94FF0000C98F808B022E001211AE00E
:10590000002214E00CFB04F8BB1818F803A001FBFC
:10591000008808F803A00CEB060808FB04F818F848
:1059200003A001FB008808F803A0521CD2B29042E9
:10593000E8D8491C89B24945E2D30CF1010C0CF0BE
:10594000FF0CE345DAD85449097A01292BD100210B
:1059500027E0012221E000231BE001FB047805EB96
:10596000030C18F80CA001FB04F802FB0088E044CB
:1059700007F808A001EB060808FB047A08FB04F806
:1059800002FB00881AF80CA0C44407F80CA05B1CAA
:10599000DBB29842E1D8521C92B24A45DBD3491C93
:1059A000C9B28B45D5D8BDE8FE8F2DE9F04F91B037
:1059B000364A167B39490F7839490988137AFF240A
:1059C00024FA03F20492049AD243D2B203929C4086
:1059D000E2B20292029AD243D2B201922E4A927954
:1059E000D21AD4B22C4ADFF8A8800028127A10927A
:1059F000A8F101027ED04FF0000B2FE0002527E038
:105A0000681C0F904843805C0090481E80B205FBE4
:105A100001FC11E008EB000A1CF80A904FEA590952
:105A200005FB018E401E1EF800E04FEACE1E49EA3B
:105A30000E090CF80A9080B20028EBD10098C00142
:105A400018F80C5040EA550008F80C000F98C5B241
:105A5000AB42D5D80BF1010B0BF0FF0BB345CDD307
:105A60001098012849D10020059041E04FF0000C2A
:105A700038E00CEB070909F101004843805C009015
:105A8000481E80B209FB01F51EE00000283200200C
:105A90001408002010310020780500201400002098
:105AA0002200002008EB000B15F80BA04FEA5A0A61
:105AB00009FB018E401E1EF800E04FEACE1E4AEAA6
:105AC0000E0A05F80BA080B20028EBD10098C001A7
:105AD00018F8059040EA590008F805000CF1010C8F
